{
  "_format": "hh-sol-artifact-1",
  "contractName": "FileLog",
  "sourceName": "contracts/FileLog.sol",
  "abi": [
    {
      "anonymous": false,
      "inputs": [
        {
          "indexed": true,
          "internalType": "address",
          "name": "user",
          "type": "address"
        },
        {
          "indexed": false,
          "internalType": "string",
          "name": "filename",
          "type": "string"
        },
        {
          "indexed": false,
          "internalType": "uint256",
          "name": "timestamp",
          "type": "uint256"
        }
      ],
      "name": "FileUploaded",
      "type": "event"
    },
    {
      "inputs": [
        {
          "internalType": "uint256",
          "name": "",
          "type": "uint256"
        }
      ],
      "name": "files",
      "outputs": [
        {
          "internalType": "address",
          "name": "user",
          "type": "address"
        },
        {
          "internalType": "string",
          "name": "filename",
          "type": "string"
        },
        {
          "internalType": "uint256",
          "name": "timestamp",
          "type": "uint256"
        }
      ],
      "stateMutability": "view",
      "type": "function"
    },
    {
      "inputs": [],
      "name": "getFiles",
      "outputs": [
        {
          "components": [
            {
              "internalType": "address",
              "name": "user",
              "type": "address"
            },
            {
              "internalType": "string",
              "name": "filename",
              "type": "string"
            },
            {
              "internalType": "uint256",
              "name": "timestamp",
              "type": "uint256"
            }
          ],
          "internalType": "struct FileLog.File[]",
          "name": "",
          "type": "tuple[]"
        }
      ],
      "stateMutability": "view",
      "type": "function"
    },
    {
      "inputs": [
        {
          "internalType": "string",
          "name": "_filename",
          "type": "string"
        }
      ],
      "name": "logFile",
      "outputs": [],
      "stateMutability": "nonpayable",
      "type": "function"
    }
  ],
  "bytecode": "0x608060405234801561001057600080fd5b50610bf0806100206000396000f3fe608060405234801561001057600080fd5b50600436106100415760003560e01c80632da96d731461004657806336d8c9f614610064578063f4c714b414610080575b600080fd5b61004e6100b2565b60405161005b91906105f9565b60405180910390f35b61007e60048036038101906100799190610764565b610203565b005b61009a600480360381019061009591906107d9565b61031b565b6040516100a99392919061086e565b60405180910390f35b60606000805480602002602001604051908101604052809291908181526020016000905b828210156101fa57838290600052602060002090600302016040518060600160405290816000820160009054906101000a900473ffffffffffffffffffffffffffffffffffffffff1673ffffffffffffffffffffffffffffffffffffffff1673ffffffffffffffffffffffffffffffffffffffff16815260200160018201805461015f906108db565b80601f016020809104026020016040519081016040528092919081815260200182805461018b906108db565b80156101d85780601f106101ad576101008083540402835291602001916101d8565b820191906000526020600020905b8154815290600101906020018083116101bb57829003601f168201915b50505050508152602001600282015481525050815260200190600101906100d6565b50505050905090565b600060405180606001604052803373ffffffffffffffffffffffffffffffffffffffff16815260200183815260200142815250908060018154018082558091505060019003906000526020600020906003020160009091909190915060008201518160000160006101000a81548173ffffffffffffffffffffffffffffffffffffffff021916908373ffffffffffffffffffffffffffffffffffffffff16021790555060208201518160010190816102bb9190610ab8565b506040820151816002015550503373ffffffffffffffffffffffffffffffffffffffff167f2256cc6482ddef3e8146b3b654095ac2e0d51bc048a5685c6d950c959ee5acb58242604051610310929190610b8a565b60405180910390a250565b6000818154811061032b57600080fd5b90600052602060002090600302016000915090508060000160009054906101000a900473ffffffffffffffffffffffffffffffffffffffff1690806001018054610374906108db565b80601f01602080910402602001604051908101604052809291908181526020018280546103a0906108db565b80156103ed5780601f106103c2576101008083540402835291602001916103ed565b820191906000526020600020905b8154815290600101906020018083116103d057829003601f168201915b5050505050908060020154905083565b600081519050919050565b600082825260208201905092915050565b6000819050602082019050919050565b600073ffffffffffffffffffffffffffffffffffffffff82169050919050565b600061045482610429565b9050919050565b61046481610449565b82525050565b600081519050919050565b600082825260208201905092915050565b60005b838110156104a4578082015181840152602081019050610489565b60008484015250505050565b6000601f19601f8301169050919050565b60006104cc8261046a565b6104d68185610475565b93506104e6818560208601610486565b6104ef816104b0565b840191505092915050565b6000819050919050565b61050d816104fa565b82525050565b600060608301600083015161052b600086018261045b565b506020830151848203602086015261054382826104c1565b91505060408301516105586040860182610504565b508091505092915050565b600061056f8383610513565b905092915050565b6000602082019050919050565b600061058f826103fd565b6105998185610408565b9350836020820285016105ab85610419565b8060005b858110156105e757848403895281516105c88582610563565b94506105d383610577565b925060208a019950506001810190506105af565b50829750879550505050505092915050565b600060208201905081810360008301526106138184610584565b905092915050565b6000604051905090565b600080fd5b600080fd5b600080fd5b600080fd5b7f4e487b7100000000000000000000000000000000000000000000000000000000600052604160045260246000fd5b610671826104b0565b810181811067ffffffffffffffff821117156106905761068f610639565b5b80604052505050565b60006106a361061b565b90506106af8282610668565b919050565b600067ffffffffffffffff8211156106cf576106ce610639565b5b6106d8826104b0565b9050602081019050919050565b82818337600083830152505050565b6000610707610702846106b4565b610699565b90508281526020810184848401111561072357610722610634565b5b61072e8482856106e5565b509392505050565b600082601f83011261074b5761074a61062f565b5b813561075b8482602086016106f4565b91505092915050565b60006020828403121561077a57610779610625565b5b600082013567ffffffffffffffff8111156107985761079761062a565b5b6107a484828501610736565b91505092915050565b6107b6816104fa565b81146107c157600080fd5b50565b6000813590506107d3816107ad565b92915050565b6000602082840312156107ef576107ee610625565b5b60006107fd848285016107c4565b91505092915050565b61080f81610449565b82525050565b600082825260208201905092915050565b60006108318261046a565b61083b8185610815565b935061084b818560208601610486565b610854816104b0565b840191505092915050565b610868816104fa565b82525050565b60006060820190506108836000830186610806565b81810360208301526108958185610826565b90506108a4604083018461085f565b949350505050565b7f4e487b7100000000000000000000000000000000000000000000000000000000600052602260045260246000fd5b600060028204905060018216806108f357607f821691505b602082108103610906576109056108ac565b5b50919050565b60008190508160005260206000209050919050565b60006020601f8301049050919050565b600082821b905092915050565b60006008830261096e7fffffffffffffffffffffffffffffffffffffffffffffffffffffffffffffffff82610931565b6109788683610931565b95508019841693508086168417925050509392505050565b6000819050919050565b60006109b56109b06109ab846104fa565b610990565b6104fa565b9050919050565b6000819050919050565b6109cf8361099a565b6109e36109db826109bc565b84845461093e565b825550505050565b600090565b6109f86109eb565b610a038184846109c6565b505050565b5b81811015610a2757610a1c6000826109f0565b600181019050610a09565b5050565b601f821115610a6c57610a3d8161090c565b610a4684610921565b81016020851015610a55578190505b610a69610a6185610921565b830182610a08565b50505b505050565b600082821c905092915050565b6000610a8f60001984600802610a71565b1980831691505092915050565b6000610aa88383610a7e565b9150826002028217905092915050565b610ac18261046a565b67ffffffffffffffff811115610ada57610ad9610639565b5b610ae482546108db565b610aef828285610a2b565b600060209050601f831160018114610b225760008415610b10578287015190505b610b1a8582610a9c565b865550610b82565b601f198416610b308661090c565b60005b82811015610b5857848901518255600182019150602085019450602081019050610b33565b86831015610b755784890151610b71601f891682610a7e565b8355505b6001600288020188555050505b505050505050565b60006040820190508181036000830152610ba48185610826565b9050610bb3602083018461085f565b939250505056fea2646970667358221220f446b333b8adf7feb906bb3d3c62b4f4f22aacd38449c5182683297418054e0764736f6c63430008140033",
  "linkReferences": {},
  "deployedLinkReferences": {}
}